:020000040000FA
:100000000C9462000C948A000C948A000C948A0070
:100010000C948A000C948A000C948A000C948A0038
:100020000C948A000C948A000C948A000C948A0028
:100030000C948A000C948A000C948A000C948A0018
:100040000C9412020C948A000C9482020C945C02B0
:100050000C948A000C948A000C948A000C948A00F8
:100060000C948A000C948A000000000024002700F1
:100070002A000000000023002600290000000000E4
:10008000250028002B0004040404040404040202D4
:100090000202020203030303030301020408102007
:1000A0004080010204081020010204081020000012
:1000B0000008000201000003040700000000000027
:1000C0000000B90311241FBECFEFD8E0DEBFCDBFC3
:1000D00011E0A0E0B1E0ECEDF7E002C005900D9278
:1000E000A231B107D9F721E0A2E1B1E001C01D9230
:1000F000A93BB207E1F710E0C2E6D0E004C02197C7
:10010000FE010E94E603C136D107C9F70E94B4027E
:100110000C94EC030C940000833081F028F48130BF
:1001200099F08230A9F008958730A9F08830C9F09D
:100130008430B1F4809180008F7D03C08091800075
:100140008F7780938000089584B58F7784BD08955C
:1001500084B58F7DFBCF8091B0008F778093B00006
:1001600008958091B0008F7DF9CF1F93CF93DF93D7
:10017000EBEBF0E09491E7EAF0E0D491E3E9F0E012
:10018000C491CC23B9F0182F992319F0892F0E941C
:100190008C00EC2FF0E0EE0FFF1FE458FF4FA5910D
:1001A000B4918FB7F894EC91111108C0D095DE236B
:1001B000DC938FBFDF91CF911F910895DE2BF8CF95
:1001C0003FB7F8948091B5019091B601A091B70125
:1001D000B091B80126B5A89B05C02F3F19F0019634
:1001E000A11DB11D3FBFBA2FA92F982F8827BC0191
:1001F000CD01620F711D811D911D42E0660F771FB9
:10020000881F991F4A95D1F70895AF92BF92CF9258
:10021000DF92EF92FF920F931F93CF93DF936C01C6
:100220007B018B01040F151FEB015E01AE18BF08A7
:10023000C017D10759F06991D601ED91FC91019059
:10024000F081E02DC6010995892B79F7C501DF9171
:10025000CF911F910F91FF90EF90DF90CF90BF90C3
:10026000AF900895FC01538D448D252F30E0842FED
:1002700090E0821B930B541710F0CF9608950197CE
:100280000895FC01918D828D981761F0A28DAE0FBB
:10029000BF2FB11D5D968C91928D9F5F9F73928F42
:1002A00090E008958FEF9FEF0895FC01918D828D6E
:1002B000981731F0828DE80FF11D858D90E008953B
:1002C0008FEF9FEF0895FC01918D228D892F90E093
:1002D000805C9F4F821B91098F739927089583E15A
:1002E00091E00E94630121E0892B09F420E0822F34
:1002F000089580E090E0892B29F00E946F01811120
:100300000C9400000895FC01A48DA80FB92FB11D15
:10031000A35ABF4F2C91848D90E001968F7399273B
:10032000848FA689B7892C93A089B1898C91837019
:1003300080648C93938D848D981306C00288F38912
:10034000E02D80818F7D80830895EF92FF920F933F
:100350001F93CF93DF93EC0181E0888F9B8D8C8D71
:1003600098131AC0E889F989808185FF15C09FB765
:10037000F894EE89FF896083E889F9898081837028
:10038000806480839FBF81E090E0DF91CF911F91D7
:100390000F91FF90EF900895F62E0B8D10E00F5FF8
:1003A0001F4F0F731127E02E8C8D8E110CC00FB6CE
:1003B00007FCFACFE889F989808185FFF5CFCE0166
:1003C0000E948301F1CFEB8DEC0FFD2FF11DE35A5D
:1003D000FF4FF0829FB7F8940B8FEA89FB898081E9
:1003E0008062CFCFCF93DF93EC01888D8823B9F063
:1003F000AA89BB89E889F9898C9185FD03C0808130
:1004000086FD0DC00FB607FCF7CF8C9185FFF2CFAC
:10041000808185FFEDCFCE010E948301E9CFDF917E
:10042000CF9108951F920F920FB60F9211242F9320
:100430003F938F939F93AF93BF938091B10190911E
:10044000B201A091B301B091B4013091B00123E0A9
:10045000230F2D3758F50196A11DB11D2093B00132
:100460008093B1019093B201A093B301B093B40112
:100470008091B5019091B601A091B701B091B801FA
:100480000196A11DB11D8093B5019093B601A09373
:10049000B701B093B801BF91AF919F918F913F91F8
:1004A0002F910F900FBE0F901F90189526E8230FE5
:1004B0000296A11DB11DD2CF1F920F920FB60F92BF
:1004C00011242F933F934F935F936F937F938F9359
:1004D0009F93AF93BF93EF93FF9383E191E00E94CB
:1004E0008301FF91EF91BF91AF919F918F917F9188
:1004F0006F915F914F913F912F910F900FBE0F9091
:100500001F9018951F920F920FB60F9211242F93E0
:100510008F939F93EF93FF93E0912301F091240138
:100520008081E0912901F0912A0182FD1BC0908118
:1005300080912C018F5F8F7320912D01821741F0E4
:10054000E0912C01F0E0ED5EFE4F958F80932C0141
:10055000FF91EF919F918F912F910F900FBE0F9070
:100560001F9018958081F4CF789484B5826084BD03
:1005700084B5816084BD85B5826085BD85B58160A7
:1005800085BD80916E00816080936E001092810025
:1005900080918100826080938100809181008160E0
:1005A00080938100809180008160809380008091A1
:1005B000B10084608093B1008091B000816080932D
:1005C000B00080917A00846080937A0080917A00F4
:1005D000826080937A0080917A00816080937A00B3
:1005E00080917A00806880937A001092C100E09137
:1005F0002301F091240182E08083E0911F01F091BA
:1006000020011082E0912101F09122018FEC808382
:1006100010922B01E0912701F091280186E0808360
:10062000E0912501F0912601808180618083E09135
:100630002501F0912601808188608083E091250169
:10064000F0912601808180688083E0912501F091FE
:10065000260180818F7D8083E7EAF0E02491E3E941
:10066000F0E08491882399F090E0880F991FFC01B5
:10067000E859FF4FA591B491FC01E458FF4F8591D3
:1006800094918FB7F894EC91E22BEC938FBF20EB11
:10069000822E20E0922ECCE9D0E008E810E030E095
:1006A000A32E30E0B32EF4018491FE01E490F80112
:1006B000F490FF2009F456C081110E948C00EF2DA8
:1006C000F0E0EE0FFF1FEE58FF4FA591B4918C9113
:1006D000E82291E080E009F490E0E92EF82E83E131
:1006E00091E00E946301892B31F083E191E00E9447
:1006F000410180931201809112018133B1F581E0B3
:10070000EF28A1F10E94E0002B013C018AE0C82EF5
:10071000D12CE12CF12C0E94E000641975098609A6
:100720009709683E734081059105A8F3F1E0CF1A5F
:10073000D108E108F10828EE420E23E0521E611CA8
:10074000711CC114D104E104F10429F7A114B1040E
:1007500009F4A9CF0E946F01882309F4A4CF0E9455
:100760000000A1CFF12CE12CBACF80E00E94B500AF
:10077000C9CFE3E1F1E01382128288EE93E0A0E0BA
:10078000B0E084839583A683B78384E091E091836E
:10079000808385EC90E09587848784EC90E0978750
:1007A000868780EC90E0918B808B81EC90E0938B3E
:1007B000828B82EC90E0958B848B86EC90E0978B1B
:1007C000868B118E128E138E148E0895EE0FFF1FDE
:1007D0000590F491E02D0994F894FFCF00000000FB
:0E07E000A50105013201F2016301410155013D
:107E0000112484B714BE81FFF0D085E080938100F7
:107E100082E08093C00088E18093C10086E0809377
:107E2000C20080E18093C4008EE0C9D0259A86E02C
:107E300020E33CEF91E0309385002093840096BBD3
:107E4000B09BFECF1D9AA8958150A9F7CC24DD24C4
:107E500088248394B5E0AB2EA1E19A2EF3E0BF2EE7
:107E6000A2D0813461F49FD0082FAFD0023811F036
:107E7000013811F484E001C083E08DD089C08234E0
:107E800011F484E103C0853419F485E0A6D080C0E4
:107E9000853579F488D0E82EFF2485D0082F10E0AE
:107EA000102F00270E291F29000F111F8ED06801E7
:107EB0006FC0863521F484E090D080E0DECF843638
:107EC00009F040C070D06FD0082F6DD080E0C81688
:107ED00080E7D80618F4F601B7BEE895C0E0D1E017
:107EE00062D089930C17E1F7F0E0CF16F0E7DF06D8
:107EF00018F0F601B7BEE89568D007B600FCFDCFD4
:107F0000A601A0E0B1E02C9130E011968C91119780
:107F100090E0982F8827822B932B1296FA010C0160
:107F200087BEE89511244E5F5F4FF1E0A038BF0790
:107F300051F7F601A7BEE89507B600FCFDCF97BE46
:107F4000E89526C08437B1F42ED02DD0F82E2BD052
:107F50003CD0F601EF2C8F010F5F1F4F84911BD097
:107F6000EA94F801C1F70894C11CD11CFA94CF0C13
:107F7000D11C0EC0853739F428D08EE10CD085E9AC
:107F80000AD08FE07ACF813511F488E018D01DD067
:107F900080E101D065CF982F8091C00085FFFCCF94
:107FA0009093C60008958091C00087FFFCCF809118
:107FB000C00084FD01C0A8958091C6000895E0E648
:107FC000F0E098E1908380830895EDDF803219F02E
:107FD00088E0F5DFFFCF84E1DECF1F93182FE3DFCA
:107FE0001150E9F7F2DF1F91089580E0E8DFEE27F6
:047FF000FF270994CA
:027FFE00040479
:00000001FF
